{
    "_format": "hh-sol-artifact-1",
    "contractName": "Posts",
    "sourceName": "contracts/Posts.sol",
    "abi": [
        {
            "inputs": [],
            "stateMutability": "nonpayable",
            "type": "constructor"
        },
        {
            "anonymous": false,
            "inputs": [
                {
                    "indexed": true,
                    "internalType": "address",
                    "name": "from",
                    "type": "address"
                },
                {
                    "indexed": false,
                    "internalType": "uint256",
                    "name": "timestamp",
                    "type": "uint256"
                },
                {
                    "indexed": false,
                    "internalType": "string",
                    "name": "message",
                    "type": "string"
                }
            ],
            "name": "NewPost",
            "type": "event"
        },
        {
            "inputs": [],
            "name": "getAllPosts",
            "outputs": [
                {
                    "components": [
                        {
                            "internalType": "address",
                            "name": "sender",
                            "type": "address"
                        },
                        {
                            "internalType": "string",
                            "name": "message",
                            "type": "string"
                        },
                        {
                            "internalType": "string",
                            "name": "title",
                            "type": "string"
                        },
                        {
                            "internalType": "string",
                            "name": "img",
                            "type": "string"
                        },
                        {
                            "internalType": "string",
                            "name": "desc",
                            "type": "string"
                        },
                        {
                            "internalType": "uint256",
                            "name": "timestamp",
                            "type": "uint256"
                        }
                    ],
                    "internalType": "struct Posts.Post[]",
                    "name": "",
                    "type": "tuple[]"
                }
            ],
            "stateMutability": "view",
            "type": "function"
        },
        {
            "inputs": [],
            "name": "getTotalPosts",
            "outputs": [
                {
                    "internalType": "uint256",
                    "name": "",
                    "type": "uint256"
                }
            ],
            "stateMutability": "view",
            "type": "function"
        },
        {
            "inputs": [
                {
                    "internalType": "string",
                    "name": "_message",
                    "type": "string"
                },
                {
                    "internalType": "string",
                    "name": "_title",
                    "type": "string"
                },
                {
                    "internalType": "string",
                    "name": "_img",
                    "type": "string"
                },
                {
                    "internalType": "string",
                    "name": "_desc",
                    "type": "string"
                }
            ],
            "name": "post",
            "outputs": [],
            "stateMutability": "nonpayable",
            "type": "function"
        }
    ],
    "bytecode": "0x60806040523480156200001157600080fd5b506200005d6040518060400160405280600a81526020017f4920414d20414c495645000000000000000000000000000000000000000000008152506200006360201b620005d31760201c565b620001f7565b62000103816040516024016200007a919062000170565b6040516020818303038152906040527f41304fac000000000000000000000000000000000000000000000000000000007bffffffffffffffffffffffffffffffffffffffffffffffffffffffff19166020820180517bffffffffffffffffffffffffffffffffffffffffffffffffffffffff83818316178352505050506200010660201b60201c565b50565b60008151905060006a636f6e736f6c652e6c6f679050602083016000808483855afa5050505050565b60006200013c8262000194565b6200014881856200019f565b93506200015a818560208601620001b0565b6200016581620001e6565b840191505092915050565b600060208201905081810360008301526200018c81846200012f565b905092915050565b600081519050919050565b600082825260208201905092915050565b60005b83811015620001d0578082015181840152602081019050620001b3565b83811115620001e0576000848401525b50505050565b6000601f19601f8301169050919050565b610f0080620002076000396000f3fe608060405234801561001057600080fd5b50600436106100415760003560e01c806330561100146100465780635fe226b414610064578063a55b969314610082575b600080fd5b61004e61009e565b60405161005b9190610b70565b60405180910390f35b61006c6103a5565b6040516100799190610c14565b60405180910390f35b61009c600480360381019061009791906108d8565b6103f0565b005b60606001805480602002602001604051908101604052809291908181526020016000905b8282101561039c57838290600052602060002090600602016040518060c00160405290816000820160009054906101000a900473ffffffffffffffffffffffffffffffffffffffff1673ffffffffffffffffffffffffffffffffffffffff1673ffffffffffffffffffffffffffffffffffffffff16815260200160018201805461014b90610dfa565b80601f016020809104026020016040519081016040528092919081815260200182805461017790610dfa565b80156101c45780601f10610199576101008083540402835291602001916101c4565b820191906000526020600020905b8154815290600101906020018083116101a757829003601f168201915b505050505081526020016002820180546101dd90610dfa565b80601f016020809104026020016040519081016040528092919081815260200182805461020990610dfa565b80156102565780601f1061022b57610100808354040283529160200191610256565b820191906000526020600020905b81548152906001019060200180831161023957829003601f168201915b5050505050815260200160038201805461026f90610dfa565b80601f016020809104026020016040519081016040528092919081815260200182805461029b90610dfa565b80156102e85780601f106102bd576101008083540402835291602001916102e8565b820191906000526020600020905b8154815290600101906020018083116102cb57829003601f168201915b5050505050815260200160048201805461030190610dfa565b80601f016020809104026020016040519081016040528092919081815260200182805461032d90610dfa565b801561037a5780601f1061034f5761010080835404028352916020019161037a565b820191906000526020600020905b81548152906001019060200180831161035d57829003601f168201915b50505050508152602001600582015481525050815260200190600101906100c2565b50505050905090565b60006103e86040518060400160405280601781526020017f5765206861766520256420746f74616c20706f7374732100000000000000000081525060005461066c565b600054905090565b60016000808282546104029190610d26565b925050819055506104486040518060400160405280600d81526020017f257320686173207761766564210000000000000000000000000000000000000081525033610708565b60016040518060c001604052803373ffffffffffffffffffffffffffffffffffffffff16815260200186815260200185815260200184815260200183815260200142815250908060018154018082558091505060019003906000526020600020906006020160009091909190915060008201518160000160006101000a81548173ffffffffffffffffffffffffffffffffffffffff021916908373ffffffffffffffffffffffffffffffffffffffff16021790555060208201518160010190805190602001906105199291906107cd565b5060408201518160020190805190602001906105369291906107cd565b5060608201518160030190805190602001906105539291906107cd565b5060808201518160040190805190602001906105709291906107cd565b5060a0820151816005015550503373ffffffffffffffffffffffffffffffffffffffff167fd8c86c7877c3f1f8a40af6cf64a11fe867af887f2a1ad31aac849e36730425b042866040516105c5929190610c2f565b60405180910390a250505050565b610669816040516024016105e79190610b92565b6040516020818303038152906040527f41304fac000000000000000000000000000000000000000000000000000000007bffffffffffffffffffffffffffffffffffffffffffffffffffffffff19166020820180517bffffffffffffffffffffffffffffffffffffffffffffffffffffffff83818316178352505050506107a4565b50565b6107048282604051602401610682929190610be4565b6040516020818303038152906040527f9710a9d0000000000000000000000000000000000000000000000000000000007bffffffffffffffffffffffffffffffffffffffffffffffffffffffff19166020820180517bffffffffffffffffffffffffffffffffffffffffffffffffffffffff83818316178352505050506107a4565b5050565b6107a0828260405160240161071e929190610bb4565b6040516020818303038152906040527f319af333000000000000000000000000000000000000000000000000000000007bffffffffffffffffffffffffffffffffffffffffffffffffffffffff19166020820180517bffffffffffffffffffffffffffffffffffffffffffffffffffffffff83818316178352505050506107a4565b5050565b60008151905060006a636f6e736f6c652e6c6f679050602083016000808483855afa5050505050565b8280546107d990610dfa565b90600052602060002090601f0160209004810192826107fb5760008555610842565b82601f1061081457805160ff1916838001178555610842565b82800160010185558215610842579182015b82811115610841578251825591602001919060010190610826565b5b50905061084f9190610853565b5090565b5b8082111561086c576000816000905550600101610854565b5090565b600061088361087e84610c90565b610c5f565b90508281526020810184848401111561089b57600080fd5b6108a6848285610db8565b509392505050565b600082601f8301126108bf57600080fd5b81356108cf848260208601610870565b91505092915050565b600080600080608085870312156108ee57600080fd5b600085013567ffffffffffffffff81111561090857600080fd5b610914878288016108ae565b945050602085013567ffffffffffffffff81111561093157600080fd5b61093d878288016108ae565b935050604085013567ffffffffffffffff81111561095a57600080fd5b610966878288016108ae565b925050606085013567ffffffffffffffff81111561098357600080fd5b61098f878288016108ae565b91505092959194509250565b60006109a78383610ab4565b905092915050565b6109b881610d7c565b82525050565b6109c781610d7c565b82525050565b60006109d882610cd0565b6109e28185610cf3565b9350836020820285016109f485610cc0565b8060005b85811015610a305784840389528151610a11858261099b565b9450610a1c83610ce6565b925060208a019950506001810190506109f8565b50829750879550505050505092915050565b6000610a4d82610cdb565b610a578185610d04565b9350610a67818560208601610dc7565b610a7081610eb9565b840191505092915050565b6000610a8682610cdb565b610a908185610d15565b9350610aa0818560208601610dc7565b610aa981610eb9565b840191505092915050565b600060c083016000830151610acc60008601826109af565b5060208301518482036020860152610ae48282610a42565b91505060408301518482036040860152610afe8282610a42565b91505060608301518482036060860152610b188282610a42565b91505060808301518482036080860152610b328282610a42565b91505060a0830151610b4760a0860182610b52565b508091505092915050565b610b5b81610dae565b82525050565b610b6a81610dae565b82525050565b60006020820190508181036000830152610b8a81846109cd565b905092915050565b60006020820190508181036000830152610bac8184610a7b565b905092915050565b60006040820190508181036000830152610bce8185610a7b565b9050610bdd60208301846109be565b9392505050565b60006040820190508181036000830152610bfe8185610a7b565b9050610c0d6020830184610b61565b9392505050565b6000602082019050610c296000830184610b61565b92915050565b6000604082019050610c446000830185610b61565b8181036020830152610c568184610a7b565b90509392505050565b6000604051905081810181811067ffffffffffffffff82111715610c8657610c85610e8a565b5b8060405250919050565b600067ffffffffffffffff821115610cab57610caa610e8a565b5b601f19601f8301169050602081019050919050565b6000819050602082019050919050565b600081519050919050565b600081519050919050565b6000602082019050919050565b600082825260208201905092915050565b600082825260208201905092915050565b600082825260208201905092915050565b6000610d3182610dae565b9150610d3c83610dae565b9250827fffffffffffffffffffffffffffffffffffffffffffffffffffffffffffffffff03821115610d7157610d70610e2c565b5b828201905092915050565b6000610d8782610d8e565b9050919050565b600073ffffffffffffffffffffffffffffffffffffffff82169050919050565b6000819050919050565b82818337600083830152505050565b60005b83811015610de5578082015181840152602081019050610dca565b83811115610df4576000848401525b50505050565b60006002820490506001821680610e1257607f821691505b60208210811415610e2657610e25610e5b565b5b50919050565b7f4e487b7100000000000000000000000000000000000000000000000000000000600052601160045260246000fd5b7f4e487b7100000000000000000000000000000000000000000000000000000000600052602260045260246000fd5b7f4e487b7100000000000000000000000000000000000000000000000000000000600052604160045260246000fd5b6000601f19601f830116905091905056fea264697066735822122045fac7d62c01993be13b06f83dab8fec0ea0e5c419ac112e9479f2823b2171ac64736f6c63430008000033",
    "linkReferences": {},
    "deployedLinkReferences": {}
}